:020000040000fa
:080000000002040000000000f2
:020000040000fa
:04000800f0050000ff
:020000040000fa
:04000c0008030000e5
:020000040000fa
:040010000c030000dd
:020000040000fa
:0400140010030000d5
:020000040000fa
:0400180014030000cd
:020000040000fa
:04001c00f0050000eb
:020000040000fa
:04002000f0050000e7
:020000040000fa
:04002400f0050000e3
:020000040000fa
:040028001c030000b5
:020000040000fa
:04002c00c805000003
:020000040000fa
:04003000f0050000d7
:020000040000fa
:04003400f0050000d3
:020000040000fa
:04003800f0050000cf
:020000040000fa
:04003c00e4050000d7
:020000040000fa
:04004000f0050000c7
:020000040000fa
:04004400e4040000d0
:020000040000fa
:04004800f0050000bf
:020000040000fa
:04004c00f0050000bb
:020000040000fa
:04005000f0050000b7
:020000040000fa
:04005400760300002f
:020000040000fa
:04005800f0050000af
:020000040000fa
:04005c005605000045
:020000040000fa
:04006000f0050000a7
:020000040000fa
:04006400f0050000a3
:020000040000fa
:04006800f00500009f
:020000040000fa
:04006c00f00500009b
:020000040000fa
:04007000f005000097
:020000040000fa
:040074005a0300002b
:020000040000fa
:040078003803000049
:020000040000fa
:04007c00f00500008b
:020000040000fa
:04008000f005000087
:020000040000fa
:04008400f005000083
:020000040000fa
:04008800f00500007f
:020000040000fa
:04008c00f00500007b
:020000040000fa
:04009000f005000077
:020000040000fa
:040094005205000011
:020000040000fa
:04009800f00500006f
:020000040000fa
:04009c00f00500006b
:020000040000fa
:0400a000f003000069
:020000040000fa
:0400a400f005000063
:020000040000fa
:0400a800f00500005f
:020000040000fa
:0400ac00f00500005b
:020000040000fa
:0400b000f005000057
:020000040000fa
:0400b400f005000053
:020000040000fa
:0400b800f00500004f
:020000040000fa
:0400bc00e805000053
:020000040000fa
:0400c000ec0500004b
:020000040000fa
:0400c400f005000043
:020000040000fa
:0400c800f00500003f
:020000040000fa
:0400cc00f00500003b
:020000040000fa
:0400d000f005000037
:020000040000fa
:0400d400f005000033
:020000040000fa
:0400d800f00500002f
:020000040000fa
:0400dc00f00500002b
:020000040000fa
:0400e000f005000027
:020000040000fa
:0400e400f005000023
:020000040000fa
:0400e800f00500001f
:020000040000fa
:0400ec00f00500001b
:020000040000fa
:0400f000f005000017
:020000040000fa
:0400f400f005000013
:020000040000fa
:0400f800f00500000f
:020000040000fa
:0400fc00f00500000b
:020000040000fa
:04010000f005000006
:020000040000fa
:04010400f005000002
:020000040000fa
:04010800f0050000fe
:020000040000fa
:04010c00f0050000fa
:020000040000fa
:04011000f0050000f6
:020000040000fa
:04011400f0050000f2
:020000040000fa
:04011800f0050000ee
:020000040000fa
:04011c00f0050000ea
:020000040000fa
:0401200018030000c0
:020000040000fa
:04012400f0050000e2
:020000040000fa
:04012800f0050000de
:020000040000fa
:04012c00f0050000da
:020000040000fa
:04013000f0050000d6
:020000040000fa
:04013400f0050000d2
:020000040000fa
:04013800f0050000ce
:020000040000fa
:04013c00f0050000ca
:020000040000fa
:04014000f0050000c6
:020000040000fa
:04014400f0050000c2
:020000040000fa
:04014800f0050000be
:020000040000fa
:04014c00f0050000ba
:020000040000fa
:04015000f0050000b6
:020000040000fa
:04015400f0050000b2
:020000040000fa
:04015800f0050000ae
:020000040000fa
:04015c00f0050000aa
:020000040000fa
:04016000f0050000a6
:020000040000fa
:04016400f0050000a2
:020000040000fa
:04016800f00500009e
:020000040000fa
:04016c00f00500009a
:020000040000fa
:040170006a0400001d
:020000040000fa
:04017400f005000092
:020000040000fa
:04017800f00500008e
:020000040000fa
:04017c00f00500008a
:020000040000fa
:04018000f005000086
:020000040000fa
:04018400f005000082
:020000040000fa
:04018800f00500007e
:020000040000fa
:04018c00f00500007a
:020000040000fa
:04019000f005000076
:020000040000fa
:04019400f005000072
:020000040000fa
:04019800f00500006e
:020000040000fa
:04019c00f00500006a
:020000040000fa
:0401a000f005000066
:020000040000fa
:0401a400f005000062
:020000040000fa
:0401a800f00500005e
:020000040000fa
:0401ac00f00500005a
:020000040000fa
:0401b000f005000056
:020000040000fa
:0401b400f005000052
:020000040000fa
:0401b800f00500004e
:020000040000fa
:0401bc00f00500004a
:020000040000fa
:0401c000f005000046
:020000040000fa
:0401c400f005000042
:020000040000fa
:0401c800f00500003e
:020000040000fa
:0401cc00f00500003a
:020000040000fa
:0401d000f005000036
:020000040000fa
:0401d400f005000032
:020000040000fa
:0401d800f00500002e
:020000040000fa
:0401dc00f00500002a
:020000040000fa
:0401e000f005000026
:020000040000fa
:0401e400f005000022
:020000040000fa
:0401e800f00500001e
:020000040000fa
:0401ec00f00500001a
:020000040000fa
:0401f000f005000016
:020000040000fa
:0401f400f005000012
:020000040000fa
:0401f800f00500000e
:020000040000fa
:0401fc00f00500000a
:020000040000fa
:04020800f0050000fd
:020000040000fa
:04020c0008030000e3
:020000040000fa
:040210000c030000db
:020000040000fa
:0402140010030000d3
:020000040000fa
:0402180014030000cb
:020000040000fa
:04021c00f0050000e9
:020000040000fa
:04022000f0050000e5
:020000040000fa
:04022400f0050000e1
:020000040000fa
:040228001c030000b3
:020000040000fa
:04022c00c805000001
:020000040000fa
:04023000f0050000d5
:020000040000fa
:04023400f0050000d1
:020000040000fa
:04023800f0050000cd
:020000040000fa
:04023c00e4050000d5
:020000040000fa
:04024000f0050000c5
:020000040000fa
:04024400e4040000ce
:020000040000fa
:04024800f0050000bd
:020000040000fa
:04024c00f0050000b9
:020000040000fa
:04025000f0050000b5
:020000040000fa
:04025400760300002d
:020000040000fa
:04025800f0050000ad
:020000040000fa
:04025c005605000043
:020000040000fa
:04026000f0050000a5
:020000040000fa
:04026400f0050000a1
:020000040000fa
:04026800f00500009d
:020000040000fa
:04026c00f005000099
:020000040000fa
:04027000f005000095
:020000040000fa
:040274005a03000029
:020000040000fa
:040278003803000047
:020000040000fa
:04027c00f005000089
:020000040000fa
:04028000f005000085
:020000040000fa
:04028400f005000081
:020000040000fa
:04028800f00500007d
:020000040000fa
:04028c00f005000079
:020000040000fa
:04029000f005000075
:020000040000fa
:04029400520500000f
:020000040000fa
:04029800f00500006d
:020000040000fa
:04029c00f005000069
:020000040000fa
:0402a000f003000067
:020000040000fa
:0402a400f005000061
:020000040000fa
:0402a800f00500005d
:020000040000fa
:0402ac00f005000059
:020000040000fa
:0402b000f005000055
:020000040000fa
:0402b400f005000051
:020000040000fa
:0402b800f00500004d
:020000040000fa
:0402bc00e805000051
:020000040000fa
:0402c000ec05000049
:020000040000fa
:0402c400f005000041
:020000040000fa
:0402c800f00500003d
:020000040000fa
:0402cc00f005000039
:020000040000fa
:0402d000f005000035
:020000040000fa
:0402d400f005000031
:020000040000fa
:0402d800f00500002d
:020000040000fa
:0402dc00f005000029
:020000040000fa
:0402e000f005000025
:020000040000fa
:0402e400f005000021
:020000040000fa
:0402e800f00500001d
:020000040000fa
:0402ec00f005000019
:020000040000fa
:0402f000f005000015
:020000040000fa
:0402f400f005000011
:020000040000fa
:0402f800f00500000d
:020000040000fa
:0402fc00f005000009
:020000040000fa
:04030000f005000004
:020000040000fa
:04030400f005000000
:020000040000fa
:04030800f0050000fc
:020000040000fa
:04030c00f0050000f8
:020000040000fa
:04031000f0050000f4
:020000040000fa
:04031400f0050000f0
:020000040000fa
:04031800f0050000ec
:020000040000fa
:04031c00f0050000e8
:020000040000fa
:0403200018030000be
:020000040000fa
:04032400f0050000e0
:020000040000fa
:04032800f0050000dc
:020000040000fa
:04032c00f0050000d8
:020000040000fa
:04033000f0050000d4
:020000040000fa
:04033400f0050000d0
:020000040000fa
:04033800f0050000cc
:020000040000fa
:04033c00f0050000c8
:020000040000fa
:04034000f0050000c4
:020000040000fa
:04034400f0050000c0
:020000040000fa
:04034800f0050000bc
:020000040000fa
:04034c00f0050000b8
:020000040000fa
:04035000f0050000b4
:020000040000fa
:04035400f0050000b0
:020000040000fa
:04035800f0050000ac
:020000040000fa
:04035c00f0050000a8
:020000040000fa
:04036000f0050000a4
:020000040000fa
:04036400f0050000a0
:020000040000fa
:04036800f00500009c
:020000040000fa
:04036c00f005000098
:020000040000fa
:040370006a0400001b
:020000040000fa
:04037400f005000090
:020000040000fa
:04037800f00500008c
:020000040000fa
:04037c00f005000088
:020000040000fa
:04038000f005000084
:020000040000fa
:04038400f005000080
:020000040000fa
:04038800f00500007c
:020000040000fa
:04038c00f005000078
:020000040000fa
:04039000f005000074
:020000040000fa
:04039400f005000070
:020000040000fa
:04039800f00500006c
:020000040000fa
:04039c00f005000068
:020000040000fa
:0403a000f005000064
:020000040000fa
:0403a400f005000060
:020000040000fa
:0403a800f00500005c
:020000040000fa
:0403ac00f005000058
:020000040000fa
:0403b000f005000054
:020000040000fa
:0403b400f005000050
:020000040000fa
:0403b800f00500004c
:020000040000fa
:0403bc00f005000048
:020000040000fa
:0403c000f005000044
:020000040000fa
:0403c400f005000040
:020000040000fa
:0403c800f00500003c
:020000040000fa
:0403cc00f005000038
:020000040000fa
:0403d000f005000034
:020000040000fa
:0403d400f005000030
:020000040000fa
:0403d800f00500002c
:020000040000fa
:0403dc00f005000028
:020000040000fa
:0403e000f005000024
:020000040000fa
:0403e400f005000020
:020000040000fa
:0403e800f00500001c
:020000040000fa
:0403ec00f005000018
:020000040000fa
:0403f000f005000014
:020000040000fa
:0403f400f005000010
:020000040000fa
:0403f800f00500000c
:020000040000fa
:0403fc00f005000008
:020000040000fa
:100400006f2522000e7f22000e01880000000000f0
:10041000000020000000e000020032000001200087
:100420002002880014000700110207000000e0000d
:1004300003003a0040a92e0001002000020037000e
:100440000000200001002000810f70000100320038
:1004500014000700000020000000e000020032004d
:100460000000020000000000dca20200000000000a
:100470000040da000000fe004440a900207820007f
:100480000000e000030032000020200090018800fe
:100490004440a800000006008a1f78008b1f7800e7
:1004a00000000600a1028800800478000000eb0034
:1004b0001f003700e284440054a0b4009905ba003c
:1004c000e284440054a0b4009906ba00e2844400d7
:1004d00054a0b4000006eb00476fde00fd07b20039
:1004e000ae018800636ce10003003a00eaff0700f8
:1004f0000000eb000e003700606ce10008003a00dd
:10050000004deb000a05e800020039003420ec0041
:100510000af0a0008b05e900f9ff3e000400370057
:100520006168e100010032000086eb000b0007006b
:1005300019c7ba001905ba000e04e00003003a001a
:100540000a00e000dbff3a0000000600fe07b200f0
:10055000ae0288008a047800f5ff37000cd0a300b3
:10056000e20f4d001c00390089027800354dba00b9
:100570000a05e800020039003420ec000af0a0006f
:100580008b05e9000f003200254dba000a05e8008e
:10059000020039003420ec000af0a0008b05e900cd
:1005a000080032000c00e0000600320015cdba0051
:1005b0000a05e800020039003420ec000af0a0002f
:1005c0008b05e9008984e80054a0b4000b00e0002a
:1005d000e2ff3a00000006009902ba00055d7800cb
:1005e0008b05e900f7ff3200c82ade00055d7800c0
:1005f0008b05e900f3ff32000c00e000f1ff320050
:1006000019ddba00eeff3700d4230400000000001b
:100610008020a900004006008060a900004006007c
:100620008040a900004006008080a900004006002c
:100630008bc0a900004006003600f800809fbe0075
:10064000829fbe00849fbe00869fbe008400a900da
:1006500008a60200000000004f03be004f02be00cb
:100660004f01be004f00be003600f90000400600fa
:10067000809fbe008680a9008220ab00020032006d
:10068000d408a80001003700d408a9008200d500d2
:100690000080ea006100600000004000110480005a
:1006a0000110a10081007000110488004f00be00fd
:1006b000004006003600f800809fbe00829fbe000a
:1006c000849fbe00869fbe008660a90044fd020094
:1006d000000000004f03be004f02be004f01be00ed
:1006e0004f00be003600f90000400600809fbe00ab
:1006f000821f78000200fa008560a9002242ab0048
:1007000002003a002262ab00120032002022ef0009
:1007100030118000e0ff9f0030118000e0ff9f005b
:1007200030118000e0ff9f0030118000e0ff9f004b
:100730002242a9002222a9002262a900b049800019
:100740000011880000402200101188002342a800f8
:100750001f00370030118000e0ff9f00a062800082
:10076000d1152000810f50000f003e00eff89700d8
:1007700042af2000000141001141980032af20003b
:100780000200400010409000ed4f500003003a007e
:10079000eacf500001003a003449a80040c52000cb
:1007a0001008e80004003700e1152000810f500018
:1007b00001003a003449a8002222ab0001003200b7
:1007c0002222a900a1c0b30060c520000148780022
:1007d0000080fa004f0178004f00be000040060084
:1007e000809fbe00821f78000200fa0087c0a90027
:1007f0003242ab0002003a003262ab00120032001b
:100800003022ef00b0118000e0ff9f00b0118000a7
:10081000e0ff9f00b0118000e0ff9f00b01180005a
:10082000e0ff9f003242a9003222a9003262a900f3
:10083000c04980008011880000402200901188008b
:100840003342a8001f003700b0118000e0ff9f0076
:10085000d0788000d1152000810f50000f003e009d
:10086000eff89700a2db2000000141001141980041
:1008700092db20000200400010409000ed4f50003d
:1008800003003a00eacf500001003a0034a9a80062
:10089000a0f120001008e80004003700e115200056
:1008a000810f500001003a0034a9a8003222ab00a9
:1008b000010032003222a90021c3b300c0f12000a0
:1008c000014878000080fa004f0178004f00be0018
:1008d00000400600809fbe00821f78000200fa00e0
:1008e0008e40a9005242ab0002003a005262ab00b7
:1008f000120032005022ef00b0128000e0ff9f0093
:10090000b0128000e0ff9f00b0128000e0ff9f0067
:10091000b0128000e0ff9f005242a9005222a900bd
:100920005262a900d0498000801288000040220055
:10093000901288005342a8001f003700b0128000b8
:10094000e0ff9f0020818000f1072000810f500010
:100950000f003e00eff8970022fa2000000141004e
:100960001141980012fa200002004000104090004f
:10097000ed4f500003003a00eacf500001003a006a
:100980003549a800400221001008e80004003700a3
:1009900001082000810f500001003a003549a800ed
:1009a0005222ab00010032005222a90021c3b30041
:1009b00060022100014878000080fa004f017800b1
:1009c0004f00be00004006003600f800809fbe00c9
:1009d000829fbe00849fbe00869fbe003c09a80087
:1009e00044cc020000000000cafb0200000000002e
:1009f0003d49ed003de9b70021003a003c29a8003f
:100a0000a0c0b3003de9b7003e49ed003ee9b700a4
:100a10001b003a003c49a80050c0b3003ee9b700b3
:100a20003f49ed003fe9b70015003a003c69a800d6
:100a300020c0b3003fe9b7004049ed0040e9b700ee
:100a40000f003a003c89a80050c0b30040e9b7004d
:100a50004149ed0041e9b70009003a003ca9a8006e
:100a600020c0b30041e9b7004249ed0042e9b700b8
:100a700003003a003cc9a800c0c3b30042e9b70074
:100a80001ca702000000000084e0a9004f03be0084
:100a90004f02be004f01be004f00be003600f900fd
:100aa000004006008760a90000400600809fbe004d
:100ab000829fbe00849fbe00869fbe00881f780074
:100ac00041e2210082e0210086e12100073120007f
:100ad00081027800010278000330200033007800a2
:100ae00064024200e4824200b41a40000004eb00b9
:100af000a4124c00920f500002003600000978004a
:100b000003003700960f500001003100000b780001
:100b10000281e8000683e800878f5100efff3a006a
:100b2000504b88006c49ec006ce9b700f2c3b3008d
:100b3000824f50000f0036006c69ef0063df210028
:100b4000010178000040eb006033b8005102be00a4
:100b50004a2cdd004622de0004027400c62ade00b4
:100b60008429780006a9be000040e800e84f500044
:100b7000f6ff3a0085a0a9004f0478004f03be009d
:100b80004f02be004f01be004f00be0000400600f5
:100b90003600f800809fbe00829fbe00849fbe008a
:100ba000869fbe008420a90044fd020000000000d2
:100bb0004f03be004f02be004f01be004f00be00fb
:100bc0003600f9000040060084a0a900004006009d
:100bd00088a0a9000040060088c0a90000400600c7
:100be0000040da000000fe00889fbe00800478000c
:100bf000a00281000000e00005003a000000eb00c8
:100c00000e0007000084eb000000e0000800350043
:100c1000a80281000900e00005003200090044003c
:100c2000060007000000e00001003d000084eb002a
:100c3000080078004f04be00000006008000780025
:100c40000100e00003003a0060052200a0028900d4
:100c5000000005000080eb0062252200828f50001a
:100c600002003e00a10289000000eb000000060027
:100c700000000500839f68000100e00002003d00c5
:100c800060001000e08018000300e00002003d005a
:100c900060011100e08119005f0007004f00e000d3
:100ca00002003b0060001000e08018000000060019
:100cb00014002000eb043700f4ff2f00e904370094
:100cc0000001be003f0007000470a70003f0a10070
:100cd0006509b100160032000d0035006828e100fa
:100ce00006003500f0ff2f00f1ff27000300e000b1
:100cf00013003b0001002800000005000000400038
:100d0000818048008502e900fcff3a0008003700b6
:100d1000f88f420002003c008000eb00000005005c
:100d20008100d1000080d3008502e800fcff3a007a
:100d30000300e00002003b0060001000e0801800ab
:100d4000000006000001be001e0007000470a7009e
:100d500003f0a10003f8a30013003a006509b100f5
:100d600010003200090035006928e100020035005a
:100d700001002800000005000000400081804800bc
:100d80008502e900fcff3a0000000600f88f4200ef
:100d9000050035008100d1000080d3008502e80005
:100da000fcff3a00000006008000eb000000050098
:100db0004f89de0082017800c50437006011b80059
:100dc000d3043700c70ade00f107b200f50fb20006
:100dd00008003200e1cf4200020032000170a000a2
:100de00024000500810f7000010032000408050096
:100df00044000500810f700002003a001400050055
:100e00008502e9000000400081c04800fcff3b0073
:100e10000170a000240005006022b8000602200036
:100e20000000d0008180d2000482d2008582d200ee
:100e30000000a0000202520083825a000300310029
:100e40000202420083824a000000a1000603e9007a
:100e5000f3ff3a0000000600efff07000400be00a9
:100e60000000060007f82700078361000638e1004c
:100e700004003a00f70720008783610087037100b0
:100e800001003a0003f0a200889fbe008a9fbe00c6
:100e90008c9fbe00470ade000480a100c71ade0056
:100ea0000580a10007002800078560008785610094
:100eb000f70f20000720e1009e0032000728e10024
:100ec0009c003200010678000400e000b40032000b
:100ed000f7072000878060000170a0000500e00097
:100ee000c0003200f7072000878161000370a00076
:100ef000050652000f003a000b50e1000b003200d3
:100f00000308e10002003a000200e1007e00320026
:100f10000204500083845800040031000001fd00e9
:100f20008101fd008402fd008a05fd006044b800d7
:100f3000210037000520e10005003d000001fd0013
:100f40008101fd008402fd008a05fd0005065200b6
:100f50007a60e100050035000170a1004722dd0044
:100f6000848070008a807000630037006044b8009d
:100f7000ef02660007ff2f00070666000500e0008d
:100f800006003400f08312008714dd000511de0036
:100f9000071bdd00060171008519de007060e100ad
:100fa0000500350009047800820478000301780008
:100fb0008001eb00700656000b50e10003003a0080
:100fc00002004000838048000400370060041400e1
:100fd000e0841c0002005800838058000188a300b0
:100fe000060032008100d1000080d3008984d30044
:100ff0000884d3000402e800270037000178a3002a
:1010000025003a000100e000030032008186cf0095
:10101000698656000a0037008c0020000000e000be
:1010200004003a0009007800880478000004eb000e
:10103000700252008086cf000d0646000c06e900c3
:101040007060e1000600350080007800090078003b
:10105000880478000004eb0070065600700252000d
:101060000c00e0000c0034008c08dd00f0031600da
:101070000703de00868070000c00dd00074bde00f9
:10108000060070008c4cdd000743de00868474008f
:101090000c44dd000c0252006120e100200035000c
:1010a000610160000700280087816400f7ff2700c6
:1010b00087836400070374000300e0000600320029
:1010c00082037300040032000000e800e080480062
:1010d0000188a3000e003a00f70f20000720e1006e
:1010e0004a003d000170a1004722dd00810072002e
:1010f0008a8070000000be004f06be004f05be0093
:101100004f04be00000006006000b800faff370080
:101110008100d1000080d3000402e800eeff370018
:101120000401780089017400a10107008a80700021
:10113000f1ff3700f7010700070278000001fd000a
:101140008101fd00f301070087027800850372002a
:101150000778a300040032000001fd008101fd00ba
:1011600006020700e4ff3700850362000768a3005a
:10117000080032000b50e10003003200f0ff2f00a6
:10118000f1ff2700dcff37000001fd008101fd00b9
:10119000d9ff37000468a300d7ff3200faff3700f9
:1011a000f8ff2700888360000b003a000000e00091
:1011b00009003a0083036400828373000200320056
:1011c0000200be00ccff37000b50e100ceff3a001a
:1011d0000200be00c8ff3700140020008100640038
:1011e0003eff3700f8ff27008883610004003a00c3
:1011f0000200e00002003a008c007800beff3700d9
:10120000150020008301640039ff370001f8270032
:101210000000200081007500b7ff3700889fbe00e6
:101220008a9fbe008c9fbe001b0020000202be00f1
:101230000586680006002800060666004709de00ed
:10124000f20fb200820032000243e8008000320058
:10125000c729de00f30fb2007d0032000343e8002f
:101260007b003200f107b2000170a000f507b20068
:101270000570a000c708dd004903de00868070000d
:101280004700dd00c72add004923de0086827200a8
:101290004722dd00030551000403500085835800f8
:1012a0000300310000004000818048000a05e90089
:1012b0008c1f78008a9fbe00040050008580580073
:1012c0000402420085824a000000400081804800fc
:1012d0000005eb000004be006033b8000406be0049
:1012e0000d48e10056003100110009004dccd80036
:1012f0000c01b8000d02b8008481410060824a00f0
:101300008283530003045c0084845c0060055d00fc
:101310000a00e00025003a00800578000d40e10059
:1013200049003100880078000700780011000900aa
:101330004d88d8000c01b8000d02b800848141002e
:1013400060824a006003110083835b0004045c0038
:10135000e0845c000900e00021003a004f01be007b
:101360000300e0002b003200e30160000706730079
:101370008c81710001003200640070004200de00c8
:101380004e5edd000c007000c258de0001e0a000df
:1013900083010700cf017800818071004f06be00f5
:1013a0004f05be004f04be00000006008c834300c2
:1013b0000d044c00e0844c0060054d000000e90085
:1013c0000a00e000d4ff32008c8343000d044c007f
:1013d000e0844c0060054d000000e900ceff3700be
:1013e0000c0343008d834b0060044c00e0844c00f0
:1013f0000000e9000900e000d8ff32000c034300c0
:101400008d834b0060044c00e0844c000000e90038
:10141000d2ff37004200de004e5edd000c0070009f
:10142000c258de0001e0a000cf0178000300e00018
:10143000daff320060001000e0801800d7ff3700ac
:10144000f0ff2f00aaff3700f0ff2f00b9ff370091
:101450000404be002f010700870678000004fd0089
:101460008104fd002b010700078366000678a300b6
:10147000030032000960a7000800be002c003700fe
:101480000d78a300020032000800be0028003700db
:101490000778a30026003a0001f0a10009f0a1009e
:1014a0000668a30003003200f1ff2700f0ff2f00c1
:1014b000baff37000d68a300030032000800be0029
:1014c0008c807000b5ff37000768a30007003a0062
:1014d0000648a30003003200f1ff2700f0ff2f00b1
:1014e000aeff37000d48a300030032006000b800d3
:1014f0008c807000a9ff37000748a3000400320069
:1015000001f82700000020008c807000a3ff370046
:10151000760107000004fd008104fd00020578004b
:10152000720107000802be008a01780059ff3700e7
:101530000160a00012022000824c880097ff370053
:101540000100e000120032000500e000100032004f
:10155000889fbe008a9fbe008c9fbe000006eb00e5
:1015600001f8a3000300320060001000e0801800c2
:101570000cf0a00005f8a300030032006002120086
:10158000e0821a000cf0a2008005eb0041ff37005a
:101590006000b8000200050003836800070028000f
:1015a00007036300470ade000480a100c71ade00bb
:1015b0000580a100f70f20000720e1004200320063
:1015c0000728e10040003200889fbe008a9fbe00cd
:1015d0008c1f7800f107b200f307b2000400e000ae
:1015e000640032000170a0000500e00068003200d5
:1015f0000370a00085054200eb07b1000204b800ab
:101600000302b8008484440060854a00020ab800de
:10161000848444000a854a00030ab8000405450092
:10162000040033000804d0008984d2000a85d20067
:101630008b05e9006158e1003d00350002102000f3
:10164000090161000308200089816100f70720007b
:101650008783640008867300c84cde00c853dd0031
:10166000878474004855de000300e0000600320065
:1016700082037600040032008904e80060054d0012
:101680000a88a3000c003a00f70f20000758e10079
:1016900044003d000a70a100c75ddd000a857500a9
:1016a0008a007300090078004f0678004f05be00dd
:1016b0004f04be00000006000a05d1008984d30053
:1016c0008b05e800f0ff3700881f780006047800db
:1016d00090000700070278000001fd008101fd0075
:1016e0008c00070087027800850372000778a3004a
:1016f000050032000001fd008101fd009f00070090
:101700004f04780000000600850372000748a3001c
:1017100003003200f0ff2f00f1ff2700f8ff370031
:101720000000200001f8270088807000f4ff3700d7
:10173000880178004848dd00808171004848de005b
:10174000c850dd0001007000c850de0006047800bb
:101750000b0178001600070088807000d2ff370068
:101760000500e00005003200170020003a000700e5
:101770009dff370081037000f9ff3a008600780072
:101780004f0678004f05be004f04be000000050064
:1017900083037100f9ff3200270020002e000700ac
:1017a00094ff370001f8270086807000f4ff3700af
:1017b0000100e00026003200610111007810e10014
:1017c00023003c006022b8007010e10004003500e6
:1017d00080027800010078008000eb007001510069
:1017e0000200e0000900340070031100062add0049
:1017f000822ade008603dd00878272000200de009e
:10180000860bdd00070070008208de008481710015
:10181000f4ff270004826200848171000400280024
:10182000848262006102600005f0a60000000600ec
:1018300004827100070032000000e800e0804800e8
:10184000000006000002be006000b800efff370095
:101850006000b80000000600889fbe000004eb0096
:101860006138e10016003a000100e00008003a008b
:10187000c800de004800dd00880020000100e00014
:1018800003003a00c800de004800dd0068044400a0
:101890008184cf00e9845400060034008908dd000b
:1018a000f08314008703de00878070000900dd00ec
:1018b00009044400610214004f04be000000060049
:1018c0000300e00008003a00c811de004811dd0006
:1018d000880020000300e00003003a00c811de0089
:1018e0004811dd00680444008384cf00e98454007b
:1018f000060034008919dd00f08314008713de0030
:10190000878171000911dd0009044400e10214001f
:10191000e9ff37002700200001f0a7001700200092
:10192000470bde00f60fb200040032000643e80069
:101930000a0032004702b3000000060001037800ed
:10194000f607b2000603700002003a000703b30076
:10195000000006008702b3000000060001037800c3
:10196000f607b20006037000020032000770a00004
:10197000000006000760a000000006000478a30035
:10198000040032000578a300030032000168a300c0
:1019900001003a000200be000160a0000000060045
:1019a00081017000270032008002eb0001f8a300e3
:1019b0000300320060001000e080180015002000d5
:1019c000f40720000202420020003400f703200048
:1019d0008703600006042000000363000208200063
:1019e000000161004700de00c909dd0000807100d0
:1019f000c708de000600e00008003200870371001f
:101a0000060032001000b0000180b0000188a30081
:101a100002003200c108de000402e800f107b20053
:101a2000f30f20000320e10003003d004722dd000a
:101a3000810072002900370001f827000000eb0048
:101a4000260037006000b80000000600680212009f
:101a50007f20e100020034006000b8001f00370062
:101a60006011b8007020e1000400350080017800aa
:101a7000010078008000eb00700252000400e000da
:101a800009003400f00312000719dd008419de009c
:101a90000703dd00868171000400de00070bdd0016
:101aa000060070008408de00f7ff270083836300d0
:101ab000870371000600280003036300070032005b
:101ac0000700e00003003a0061016000028173003a
:101ad000020032001000b0000180b0000500a60036
:101ae0000000060001f0a000000006004f0ade0022
:101af0004709de00f107b200f20fb2000b0032001e
:101b0000f207b1000170a000c708dd00c901de00c6
:101b1000838070004700dd000400a600000006007e
:101b200060001000e080180000000600810f7000c7
:101b300001003a00000006008182cf000500e000ad
:101b400010003e008082cf00ee8242007028e1004b
:101b50000400390007003e00800078000000eb0020
:101b60000e003700708312008600de000500dd00e5
:101b70000a003700708352008600dd000000eb0091
:101b800006003700e28252008508dd0070831200f3
:101b90000603de00868070000500dd007507b000da
:101ba0000501ea000400a600000006006000100025
:101bb000e080180000000600889fbe008a9fbe00db
:101bc00030044200b0844a0030054b0090854b0041
:101bd0006000b1000898be000a90be000440e10019
:101be00005c8e10006d0e10007d8e100020031009d
:101bf000680040001008e8004f05be004f04be001a
:101c000000000600889fbe008a9fbe003004be0010
:101c10002005be000418540005985c0006185d00fd
:101c200007985d00110020000440e10005c8e100b4
:101c300006d0e10007d8e100010039008000eb0088
:101c4000108810004f05be004f04be0000000600c3
:101c50001200fa00889fbe008a9fbe008c9fbe00c3
:101c6000e0b79f00f1b79f0082bf9f0093bf9f0026
:101c70000605be000404be000000eb00d0b79f00c4
:101c8000c0b79f00b0b79f00a0b79f0090b79f005c
:101c9000000678005fb19700cfb097008201410045
:101ca0003fb097000200e00004003d00370007004d
:101cb0007e805700c0ff0700030037003300070095
:101cc0007e805700cfff0700dfb697000d00e000d1
:101cd0000c0035006fb29700ffb297000fbb970062
:101ce0009fbb970010002000010020006011b80089
:101cf000000272008182720002037300838373000a
:101d00001b0007000c06e80001042000810f5600ac
:101d1000e0ff3a000d00e00004003d000802be00b4
:101d20000a03be007e805700a3ff07005fa897004c
:101d30000000e00005003a001fb29700afb2970024
:101d40003fb39700cfb39700090007006fb097002b
:101d5000ffb097000fb997009fb997004f06be00dc
:101d60004f05be004f04be000080fa0000000600d0
:101d70000100070000000600a4b79f00b5b79f0050
:101d8000c6b79f00d7b79f00000006004f09de00ce
:101d900082817100b3b79f004f01de008180400057
:101da00082807000a1b79f008fb097004f09de00be
:101db000000040000200700090b79f007fa89700cd
:101dc0004f01de00818040008280700081b79f005b
:101dd0000d0007004f3ade000000400004007000d4
:101de000f0af9f00080007000402420085824a000d
:101df00006034b0087834b00dfff07000802be008d
:101e00000a03be00000006002fb29700bfb2970081
:101e10004fb39700dfb3970000000600881f7800db
:101e200018002000881f780089ff07008f87e900cd
:101e30004f04780000000600801feb0084ff0700bd
:101e40008f87e90000000600889fbe008a9fbe00c1
:101e5000e00f5000e08f5800e00f5900e08f59006c
:101e60000c003d006044b8006055b800000054000c
:101e700081805c0002015d0083815d00180020000c
:101e80001500070008003d00180007000004eb00e3
:101e9000050037000004eb000f00070002003d00c2
:101ea0001200070018002000dcff07000800e00017
:101eb000060032006022b8006033b8000000520013
:101ec00081805a0002015b0083815b004f05be00e8
:101ed0004f04be0000000600e00f5200e08f5a00e1
:101ee000e00f5b00e08f5b00000006006044b8007c
:101ef0006055b8000402540085825c0006035d0052
:101f000087835d0000000600889fbe008a9fbe0098
:101f10008c1f7800e00f5000e08f5800e00f590050
:101f2000e08f59000d003d006044b8006055b800d6
:101f30000000540081805c0002015d0083815d002f
:101f40001c0020000820e10009a8e1000ab0e1001f
:101f50000bb8e1000d003d00080037000006eb0063
:101f6000e00f5200e08f5a00e00f5b00e08f5b0053
:101f700006003d006044b8006055b80004025400fb
:101f800085825c0006035d0087835d00aaff070071
:101f90000c00e000060032006022b8006033b80098
:101fa0000000520081805a0002015b0083815b00c7
:101fb0004f0678004f05be004f04be00000006002b
:101fc000889fbe008a9fbe008c1f78000006eb0031
:101fd000e00f5000e08f5800e00f5900e08f5900eb
:101fe00007003d006044b8006055b8000000540090
:101ff00081805c0002015d0083815d001c00200087
:10200000e00f5200e08f5a00e00f5b00e08f5b00b2
:1020100007003d006044b8006055b8000402540059
:1020200085825c0006035d0087835d000c00a200d2
:10203000940007000c00e000060032006022b800a7
:102040006033b8000000520081805a0002015b003a
:1020500083815b004f0678004f05be004f04be0031
:1020600000000600889fbe008a9fbe00841f780083
:102070007c0007004f00780011003300f0ff2f00b4
:10208000838f6c0006003b00040565000a00a70072
:102090000800370009f0a6001000200008003700f3
:1020a000820f5400838f5c00030039001000200071
:1020b00001003e000000200009f0a7000000ea0037
:1020c0004f05be004f04be000000e0000000060007
:1020d000881f7800030478000300e00007003d003b
:1020e00060001000e080180060011900e081190014
:1020f00002003b0001f02d00030037000400070040
:1021000008f0a70001f0a0004f04780000000600ce
:10211000889fbe008a9fbe0000827000040271008a
:1021200004827100260032000004be000200be00de
:102130006011b8006b092000950220000182cf00d9
:102140000a0039000541b1000082cf0007003900c4
:102150000541b1000982cf00040039000541b100fa
:102160000882cf00010039000541b100054252004c
:10217000120032000a003b0082817100610164009c
:102180008100d1000080d3008984d3000884d3006b
:102190008b05e8000442e800f7ff3a00070037002b
:1021a0000804440089844c000000480081804800f5
:1021b0008b05e9000442e900f9ff3a00030007003b
:1021c0004f05be004f04be00000006008100200045
:1021d000618055000b003d000b00200061fe2f00c8
:1021e0000100e1001d003400828171006101640082
:1021f0008904d1000884d3000000e800faff3a0007
:1022000071002000610064000300700002006000a3
:102210000900320061044400e0844c000988a500f4
:10222000050032008b05e8006808e10002003a0072
:102230008904d1000884d300f20f20000258e10085
:1022400005003d00c75ddd00f907b200898075001b
:1022500008007800000006000bf827008b007800cb
:10226000000005000004be00d6fa07000003be000f
:102270000405be000200be00d2fa0700844f7500bc
:1022800000000600889fbe008a9fbe008c9fbe0093
:102290000404b8000506b8008904460060854e00b5
:1022a0000606b8000a054600e0854e000706b8009d
:1022b0008b054600040eb800890446000a854e00ce
:1022c000e0854d00050eb8000a0546008b854e00de
:1022d000060eb8008b0546000416b8000a05460035
:1022e0008b854e000516b8008b054600041eb8000d
:1022f0008b0546000800be000a01be004f06be0066
:102300004f05be004f04be0000000600000006009e
:102310000800fa00889fbe008a9fbe008c9fbe0006
:102320000004be000200be00e2b79f00f3b79f00aa
:10233000f6ff07008102780005f0a1000002780096
:102340000c0020000df827006fb19700ffb1970037
:102350008c0f52008d8f5a000a003e000800be000c
:10236000eaff07008102780005f0a1000002780072
:102370006fb19700ffb197008c0f52008d8f5a00fc
:10238000030036000800be00bffa070098003700bf
:102390000203be000000200001f82300800f53005c
:1023a000818f5b0003003a000800be009800070020
:1023b0008f0037000802be004e3dde000b002000fb
:1023c0006000b800620065004f4dde000b00200089
:1023d0000a0570008b8570008500780001f0a1006f
:1023e00008007800e00f5000e08f580007003a0026
:1023f000e20f5500e08f5d0033003200e30f55001f
:10240000e08f5d007b003a003200370087027800e1
:1024100005f0a10006027800e00f5200e08f5a009c
:102420003b0032008c0f52008d8f5a002c003a0076
:10243000840f5000858f580018003a00e20f5500b5
:10244000e08f5d0009003200e30f5500e08f5d0072
:1024500009003200e10f5500e08f5d005b003200a3
:10246000b8fd200099f4230062003700020020002c
:1024700003042400020037000200200003042c00a3
:10248000b0fd20009104240043fc0700020020005e
:1024900003e8230040fc070055003700e20f550019
:1024a000e08f5d0008003200e30f5500e08f5d0013
:1024b000080032006044b800e10f5500e08f5d0075
:1024c0004c003a0044003700b8fd20009904240075
:1024d00048003700b8fd200099042c004500370063
:1024e0000600200007d020000403430085834b0032
:1024f00086bf9f0097bf9f00800f5300818f5b00b6
:10250000030039008c0f50008d8f580005003a00f1
:102510000a08a30033003200b8fd200099fc2b000c
:10252000340037006033b80062036500e00f5300e9
:10253000e08f5b00080032000c0020000dd020006e
:102540000003460081834e006000b800840f5300f2
:10255000858f5b00040039000800be002ffb0700d8
:102560007a0107002a000700e10f5500e08f5d00a7
:10257000050032001e003900e20f5500e08f5d00bb
:102580000b003a00030037000004be0009f0a2006f
:1025900018003700e2d22b00b33b23003afa0700c1
:1025a0000001be00b0fd20009104240005003700aa
:1025b000e2d22b00b33b230033fa0700b2fd200028
:1025c0009304240027fa070009003700b8fd200013
:1025d00099f42b00070037000800200009002800ac
:1025e00004003700b8fd200099fc230001003700eb
:1025f0000004be000800be004f06be004f05be002e
:102600004f04be000080fa00000006000000060033
:102610000c00fa00889fbe008a9fbe008c9fbe00ff
:102620000004be004f09de0003002000e2b79f0057
:10263000f3b79f00810678000df0a1000006780036
:10264000f0ff2f00f1c72400800f5600818f5e003d
:10265000100036000800be00ecff07008101780082
:1026600003f0a100000178000000200001f827001d
:10267000800f5100818f5900b5003e0002002000fc
:1026800003382000a0fd200091fc2300fef9070084
:10269000a6003700f0ff2f00f1ed2300800f560059
:1026a000818f5e0011003e000085eb00f0ff2f00df
:1026b000f1972300800f5600818f5e0055003e0089
:1026c000f0ff2f00f1072000800f5600818f5e0081
:1026d0009f003e000801be000800be00aefb0700e0
:1026e000c0b79f00d1b79f00990037000800be0017
:1026f000160107000004be00f0ff2f0071f923004f
:10270000800f5600818f5e0025003e00f0ff2f00f5
:10271000f1f22300800f5600818f5e0011003e0011
:102720000801be000800be00d7f907000200200023
:1027300003f82300cbf907000005be0002002000cb
:10274000030024000800be00cff907000001be000e
:102750000a00be00b1fa07000004be000005eb004d
:102760002c0037000200200003f823000800be0000
:10277000bcf907000005be000200200003f823009a
:102780000800be00c0f907000001be000a00be003c
:10279000a2fa07000004be001a0020001d00370046
:1027a000f0ff2f00b1012400800f5600818f5e00e2
:1027b00012003e000200200003fc23000800be00bf
:1027c000a8f907000005be000200200003fc23005a
:1027d0000800be0070fb07000200200003f8230081
:1027e000a9f907000001be000a00be008bfa07002d
:1027f0000004be002a002000060037000801be00c9
:102800000000200001f82b0084fa07000004be003d
:102810003a0020000801be000800be005efb070071
:102820000002be000001be0084bf9f0095bf9f0054
:1028300059fb07000006be0052c22a00c3d723007e
:1028400055fb0700d2502f0013e123008ef907003b
:102850000001be000c00be004ffb070092aa2a0038
:10286000a3ea230088f907000001be000fba970011
:102870009fba97000400be0047fb07000002be009d
:1028800072242100a3dd2b000c00be0084bf9f003a
:1028900095bf9f0040fb070082a92c00c3e42300e2
:1028a00070f907000001be000c00be003afb0700f3
:1028b0000001be000fba97009fba9700e10f4500d4
:1028c00009003a000400be006ff907000001be00d5
:1028d0000800be0030fb07000001be000800be007b
:1028e00060f90700190037004255dd008cf821001f
:1028f0000a0646000400be0063f907000001be009e
:102900000800be0024fb070082f921000a054100ef
:102910001a01be0053f907000801be0051f9070073
:102920000001be001c00be004ef907006fb1970009
:10293000ffb19700e00f5100e08f59000300320013
:102940000004be0009f0a200010037000004be0030
:102950000800be004f06be004f05be004f04be007b
:102960000080fa00000006000800fa000002be0025
:102970008501780003f0a10000017800a6fd200089
:1029800097f42300860f5100878f59000d003e00f9
:10299000f4ff2f00f5972300840f5100858f590015
:1029a0005a003e000200200003b8270036f9070055
:1029b000e0bf9f00f1bf9f000000200001f823004e
:1029c000600037004f0ade0005002000163d25009c
:1029d000b7072400860f5100878f590019003e0069
:1029e00036be2c0067012400860f5100878f5900e6
:1029f0000a0036000400e00004003200b2fd2000ae
:102a00009304240020f9070048003700b2fd20009d
:102a10009304240013f90700440037000400e00089
:102a200004003200b2fd200093fc230016f90700d9
:102a3000430037000001be00b0fd200091fc2300e0
:102a400019003700561d2300270e2400860f510061
:102a5000878f590016003e00f6dd2e00f70a24008d
:102a6000860f5100878f59000a0036000400e000ed
:102a700004003200b2fd2000930c240002f907008c
:102a800022003700b2fd2000930c2400f5f8070067
:102a90001e0037000400e0000100320001f0a20037
:102aa00042be2c0063092400eef807002400370022
:102ab000f4ff2f00f5f72700840f5100858f590090
:102ac000030036000001be00e6f807001d003700d5
:102ad000688157001e0607006011b800630160009e
:102ae000e10f5100e08f59000a003200e20f51005f
:102af000e08f59000b003200e00f5100e08f5900c9
:102b00000d003a004fb89700dfb89700e2050700c4
:102b10000c0037004fb89700dfb8970001f0a20013
:102b2000070037004fb89700dfb89700da050700b5
:102b300001f0a200030037004fb89700dfb89700fc
:102b40005c0607000080fa00000006000001be00dd
:102b50008300780001f0a100020078000000060068
:102b6000f2874700889fbe008a9fbe008c9fbe00f0
:102b70008e1f78000003be000400200005f82f001f
:102b80000002420081824a00f2ff2f00f3f7270083
:102b9000820f5200838f5a001b0036000001400054
:102ba00081814800e00f5100e08f590006003a0093
:102bb0000001be0078fa07000001be0000002000fe
:102bc00001f82b0008003700e00f5000e08f58009c
:102bd00007003d0012022000820289000001be00b1
:102be000a0f807006011b8008cf9070079003700e1
:102bf0000200200003c0240067fa07000003be00a3
:102c00007efe2f000a003700820f5000838f58008d
:102c100070003e006000b8000200200003f82300ae
:102c2000820f5300838f5b006a0032000007eb00c5
:102c3000d0b02f00a1042000060340008783480085
:102c4000fe07b10087007800f107b20006007800a7
:102c5000324f200053f323000000410081804900df
:102c60000200200003f82300d6b79f00e7b79f00bb
:102c70007cf807000004be000200200003002400ce
:102c800081f807000001be000800be0063f90700dc
:102c90000002be000001be00f4b79f0085bf9f0088
:102ca0003dfa07000006be000001be003afa070028
:102cb0000005be000200200003f023000800be0053
:102cc00035fa07000801be0033fa0700b0b79f00cd
:102cd000c1b79f005fb39700efb39700473bde009b
:102ce00006004700cf80de0031f8070090b79f0054
:102cf000a1b79f00e29e2e0013e923000a00be0048
:102d000025fa0700a2aa2a00a3f223005ef8070012
:102d10000001be000c00be001ffa07000006be0046
:102d200062e2290083e723000a00be001afa0700c6
:102d300032e12c00c3ec230053f807000001be0071
:102d40000a00be0014fa07000001be000c00be001d
:102d50004df807000001be003fb09700cfb09700cc
:102d600049f807000001be007fb297008fba9700b4
:102d70000400be0008fa07000005be00127d2f0007
:102d8000737123001fb09700afb0970002fa0700dd
:102d90000001be000a00be003bf807003fb19700eb
:102da000cfb197002ff807000801be0036f80700e2
:102db0000004be000218270013f323001fb0970081
:102dc000afb09700f4f907000001be000800be0094
:102dd0002df807004f0778004f06be004f05be00d4
:102de0004f04be002f01b100000006004f02b000ea
:102df000889fbe008a9fbe008c9fbe008e1f7800f9
:102e00000005be000204be00b2af9f00c3af9f002a
:102e1000b2b79f00c3b79f00cfae97000df0a100df
:102e200002067800e00f5600e08f5e00c00332001b
:102e3000faaf9f008bb79f000000200001f823002d
:102e4000800f5500818f5d00b90332008fb297006b
:102e500005f0a1007faa970094b79f00a5b79f0037
:102e60000000200001f82700800f5200818f5a00d7
:102e700003003c00800f5600818f5e000400340088
:102e80000a01be000800be00fff70700af033700cd
:102e90006033b8007fa997008fb19700e00f510011
:102ea000e08f590029003d00260020000700200087
:102eb000f0ff2f00f1b72400800f5600818f5e00d5
:102ec00022003c006033b800f0ff2f00f1f7230030
:102ed000800f5600818f5e003300340047e8de002b
:102ee000cfe8de00f007b1000180b10077011000eb
:102ef0000c00be00820178008301e900030033006a
:102f00008180d1000080d300fbff37000003be00aa
:102f1000020778000e07e9000300330006034300b0
:102f200087834b00fbff37000601be006033b8000b
:102f30008c0f51008d8f59001b003a006103600017
:102f400062031300e0831b0017003700000020001d
:102f500001f82700800f5600818f5e0012003a00b2
:102f60000000200001f82300800f5200818f5a00da
:102f70006f033200060034003fb09700cfb09700d7
:102f8000e00f5000e08f580071033d006b033700e5
:102f90003fb19700cfb19700e00f5100e08f59008b
:102fa00066033d00690037000000200001f823009f
:102fb000800f5600818f5e0009003a003fb29700f3
:102fc000cfb29700e00f5200e08f5a005d033d0042
:102fd0000a01be000000200001f823005500370060
:102fe00000002000010024003fb19700cfb19700fe
:102ff000800f5100818f590003003a000a01be0082
:103000000a00be00480337000000200001f0230042
:103010003fb19700cfb19700800f5100818f5900c9
:1030200008003a007fa897008fb09700e00f50008b
:10303000e08f5800030035000a00be000c040700b2
:10304000420337000a00be00f4b79f0085bf9f000f
:10305000d6b79f00e7b79f00bcfe07000200200024
:1030600003f827007fb297008fba97005fb39700ed
:10307000efb39700820f5200838f5a00080032008e
:10308000e00f5200e08f5a000500320002002000dd
:1030900003f82300820f5200838f5a002d003a005c
:1030a0003fb19700cfb19700e00f5100e08f59007a
:1030b0000c003d000001be000000200001f82300cc
:1030c000f4b79f0085bf9f00d6b79f00e7b79f006a
:1030d00052f807007fb297008fba97005fb397004e
:1030e000efb397007fa997008fb19700e00f5100d1
:1030f000e08f590015033d000200200003082c005a
:103100000402410085824900040273008582730035
:10311000e00f5200e08f5a0008003a00120220002f
:10312000820289000001be000200be004df70700c8
:103130000001be0039f8070004033700e10f530017
:10314000e08f5b0001033a000004be0009f0a2001a
:10315000ff0237007fa997008fb19700e00f510061
:10316000e08f59000d003d00e00f5300e08f5b0041
:1031700004003a0010022000800289000a01be000b
:10318000e9ff3700e10f5300e08f5b0008003200d9
:103190000600200007f82300070037000200200087
:1031a00003f82300f2af9f0083b79f0004003700ad
:1031b0000600200007f82b00f6af9f0087b79f009e
:1031c0000200200003d02400820f5600838f5e008f
:1031d0005600340072ff2f00f3f72300820f5200d5
:1031e000838f5a0006003c003fb09700cfb0970095
:1031f000e00f5000e08f580004023d00e20137006c
:103200007200200003f82300820f5200838f5a00bf
:10321000060034003fb19700cfb19700e00f510096
:10322000e08f5900d8013c00f8013700020020006f
:1032300003f823000bf707000005be0002a02a00d8
:1032400083fb2300d4f8070090b79f00a1b79f002d
:1032500002572a00c36e23000a00be00cef8070002
:103260000002be000a01be000a00be00f4b79f00c3
:1032700085bf9f00c8f807000006be0002002000be
:1032800003e823000a00be00c3f807000001be00e7
:10329000b0aa2a00a1ea2300f2f607000001be004e
:1032a0000a00be00bcf807000001be0000002000bc
:1032b00001f02300ebf607000001be000c00be0089
:1032c000b5f80700b2a32a0083fb2300b2f8070079
:1032d0000001be007fb297008fba97000400be00c5
:1032e000e0f607000005be000001be001fb0970019
:1032f000afb09700e4f607000001be00830078003d
:1033000004002f00020062000003be00b6b79f0059
:10331000c7b79f001fb19700afb19700d1f6070064
:103320000001be000a00be00560137006011b8005f
:10333000f6ff2f00f7072000860f5200878f5a00f4
:1033400007003c000200200003b8240092f80700a8
:1033500090b79f00a1b79f0082fe2f00f3ff2f00c0
:10336000f207b1000380b1002fb2970047a0de0042
:1033700084027800cfa8de00020340008383480067
:1033800096af9f00a7af9f0085007800f107b200bd
:103390001fb097000200200003f823000202700013
:1033a0008382700094b79f00a5b79f006033b80078
:1033b000d6af9f00e7af9f0012472c00c30120004b
:1033c000820f5000838f58001a0034001200200032
:1033d00003002000d2af9f00e3af9f00623d2b00af
:1033e000d3052000820f5000838f58001100340055
:1033f0001faa9700afaa970061024200e0824a002c
:1034000094af9f00a5af9f000000200001f82f009f
:103410001fb39700afb397000603400087834800af
:1034200096b79f00a7b79f006000b800d0af9f007d
:10343000e1af9f00dfa89700c208dd0081af9f00c9
:1034400020fe2100010040001005be000a01be0060
:103450001fb09700afb0970082f607000006be00cd
:103460000a01be001fb09700afb0970086f60700b4
:103470000001be000000200001f8230067f70700ec
:103480000002be000001be000c00be00f4b79f00a9
:1034900085bf9f0040f807000003be000e002f000c
:1034a00081017800c3b79f0000016700b2b79f0099
:1034b0005fa89700efa89700c500dd00000020007e
:1034c000d0af9f00e1af9f0000002000010420006a
:1034d0005fa99700efa9970002014000838148008f
:1034e000d2af9f00e3af9f001fb09700afb097002f
:1034f0008181d1000081d3008300780001d0a10038
:103500000200670001d0a0005fa99700efa9970013
:103510000201400083814800d2af9f00e3af9f00cb
:103520005fa99700efa997003fb09700cfb0970031
:10353000d6b79f00e7b79f0017f807000001be004d
:103540000c00be0047f607000006be000a01be00e0
:103550005fa89700efa8970042f607000001be00a1
:103560001fb09700afb097003ef607000001be0005
:103570003fb09700cfb0970007f807000001be00ea
:103580000c00be0037f607000001be007fb29700b6
:103590008fba97000400be00fff707000006be00c8
:1035a0005fb39700efb397000601be000600be00b0
:1035b000f9f707000005be000001be00f6f707009e
:1035c0000002be0022142f0033e523000a00be00d3
:1035d000f4b79f0085bf9f00eff707005225230037
:1035e000c3e6230028f607000001be000a00be0063
:1035f000e9f7070052302a00b3e8230022f607005b
:103600000001be000a00be00e3f70700b2aa2a00cc
:10361000a3ea23001cf607000001be000a00be005a
:10362000ddf7070072db2600b3ed230016f6070076
:103630000001be000a00be00d7f70700a2992900ca
:1036400093f1230010f607000001be007fb297003f
:103650008fba97000400be00cff707000005be0038
:103660005fb39700efb397000601be003fb097002d
:10367000cfb0970004f607000001be000c00be00aa
:10368000c5f707000001be000a00be00fef50700f6
:1036900090b79f00a1b79f003fb19700cfb19700af
:1036a0000200be00bcf707000005be0002002000bb
:1036b00003042400f4f507001fb19700afb1970091
:1036c000f1f5070081027800000267000401be00e6
:1036d0003fb09700cfb09700f4b79f0085bf9f0021
:1036e000adf70700b0b79f00c1b79f007fb297004a
:1036f0008fba97000401be000c00be00a6f70700b9
:103700000006be0002002000030424007fb29700e0
:103710008fba97000400be00d2f507000a01be0070
:10372000d0f507000001be001fb09700afb09700b2
:10373000ccf507005fb39700efb397000601be001a
:1037400095f707000001be000c00be00cef5070093
:103750000005be000001be003fb09700cfb097004b
:10376000c9f507008102780000026700020024000a
:1037700063f723000400be00f4b79f0085bf9f00dd
:1037800085f7070090b79f00a1b79f00623c220019
:10379000638f2b007fb297008fba97000400be00a2
:1037a0007df707000006be003fb19700cfb197003c
:1037b0007fb297008fba97000400be00a9f50700fa
:1037c0000001be000a00be00a6f50700f284230037
:1037d00063f7230070f707000001be000c00be0075
:1037e000a9f50700a2fe21008fab97000701410059
:1037f0001201be00a4f50700d0af9f00e1af9f000b
:103800001fa89700afa8970069f507000006be0043
:1038100020ff21008fa99700030040001005be0083
:103820005fa99700efa997001fb09700afb097006e
:1038300095f507000a01be0093f507000c01be00d4
:1038400091f507000001be008300780002006700c8
:103850000002be00b4b79f00c5b79f000c01be00b8
:1038600080f507000a01be007ef507001fb1970032
:10387000afb197007bf507000001be005fa897007d
:10388000efa8970077f507000005be00cfaa9700c4
:1038900000002f00bfab9700070260000401be00cc
:1038a0000800be00f4b79f0085bf9f006df50700bc
:1038b0003fb19700cfb1970037f707000006be0071
:1038c0000a01be000800be0033f707000001be0079
:1038d0000c00be006cf507000004be003fb197006d
:1038e000cfb197007fb297008fba97000400be0057
:1038f00029f707000005be00b0b79f00c1b79f00c1
:103900000a01be000800be005ff507000006be0009
:103910000003be000000200001302400800f56008c
:10392000818f5e0018003c00800f5600818f5e0082
:103930001d003a00c2a32a00833323000800be0002
:10394000dcb79f00e7b79f004ff507000002be00fd
:103950000a01be000c00be00f4b79f0085bf9f00a7
:1039600040f507000001be007fb297008fba9700b4
:103970000400be00d0f407005fb39700efb39700d8
:103980000000e00029003400a22c2f00931427002f
:103990007fa897008fb09700fff60700a22c2f009a
:1039a00093142700e00037008701780003f0a1009e
:1039b0000c0178000000200061312400800f5100cc
:1039c000818f590011003c000000200061312c0063
:1039d000800f5600818f5e0014003a000a01be007d
:1039e0000c00be00dcb79f00e7b79f001df5070085
:1039f0000001be000800be00adf407005fb39700f1
:103a0000efb397000000e00008003c00022624000d
:103a100023da20007fa897008fb09700def607001a
:103a20000226240023da2000bf0037008701780037
:103a300003f0a100060178006022b8000000200019
:103a400001f02300800f5100818f59003a003400ab
:103a50004798de0022f82f000001410000002000fe
:103a6000010820000201e900030033008180d10039
:103a70000080d300fbff37000000430081804b0033
:103a8000010678008c01780003f0a100479ade005f
:103a9000cf9ade000401be00f207b1000380b1003e
:103aa000b2b79f00c3b79f00f4ff2f00f5072000b7
:103ab000bfb197008301e900030033008582d10084
:103ac0000482d300fbff37000482ea008582ea000b
:103ad0008501660000016200fd0720008d0266007e
:103ae000000278000570a0003fb79700770017002c
:103af0000000e900030033008582d1000482d30076
:103b0000fbff3700e00f5300e08f5b0002003d0039
:103b100060021200e0821a000a00be00f4b79f00a3
:103b200085bf9f00cff40700b0b79f00c1b79f00cb
:103b30008fba97007fb297003fb19700cfb197003f
:103b40000800be00f4b79f0085bf9f00cef40700b9
:103b5000810678000200280000066100022027008c
:103b600013f323000c00be008bf607000005be0017
:103b70003fb19700cfb197000c00be00b9f4070029
:103b80000001be000800be00b6f407008221270035
:103b900013f3230080f607000004be00c2e82b00e8
:103ba000f35b23000c00be007bf607000001be00a3
:103bb0000800be00b4f407000006be000001be000d
:103bc0000a00be00b0f407000004be000a01be00f7
:103bd000a4f407000001be000c00be00a1f4070021
:103be000b0b79f00c1b79f000801be000800be002b
:103bf00069f607000005be00c2b42b001333230092
:103c000065f60700e2a02e00d35d230095f40700bf
:103c10000001be000a00be005ff6070052352b000f
:103c2000a388230098f407000001be000a00be002c
:103c300059f6070012b6200063b3230089f4070089
:103c40000001be000a00be0053f60700b2aa2a0017
:103c5000a3e223008cf407000001be000a00be00ae
:103c60004df607000001be000800be007df407000d
:103c70000005be000001be000800be0046f60700b9
:103c80000006be0002002000030024000a00be005f
:103c900074f407000001be000c00be005ff50700d1
:103ca0000005be003fb19700cfb197000800be00ed
:103cb00039f607000001be003fb09700cfb0970073
:103cc00071f407000001be000a00be0065f40700a1
:103cd0000801be0063f407000001be0000002000e0
:103ce00001f823005ff407007fb297008fba9700b6
:103cf000c721dd000200200002014000838148004e
:103d0000479bde00cf9bde00e00f5300e08f5b009f
:103d100003003c0004017800140007000001be000d
:103d20007fa897008fb097001bf6070007003700a9
:103d30000800200009f82300050037006044b8009f
:103d4000030037000a04be00010037000004be0073
:103d50000800be004f0778004f06be004f05be00aa
:103d60004f04be004f02b10000000600889fbe0055
:103d700002047800f9072000890f54000d00340078
:103d80000200200003f0270003f60700f807b10047
:103d9000890f5400170034000200200003f02700b0
:103da000fdf50700f807b100890f540010003c0032
:103db0001000370029f82f00890f54000d003d0036
:103dc0000200200003c82000f3f507006806b000d9
:103dd000890f540007003d000200200003c82000a6
:103de000edf507006806b000890f540001003d00a2
:103df00009047800f207200008014100cf91de009d
:103e0000c711dd0002002000e3f507004f04be00eb
:103e1000000006000800fa00889fbe000004be00f3
:103e20000001be008300780001f0a10008007800c6
:103e3000a4fd200095f42300840f5000858f5800c6
:103e400018003e00f2ff2f00f3972300820f50006e
:103e5000838f580011003e00f2ff2f00f30720006f
:103e6000820f5000838f580005003e0002002000a2
:103e7000033820000800be00c7f507000400370023
:103e80000200200003b827000800be00fef3070070
:103e9000c0bf9f00d1bf9f00710037000800be0067
:103ea000680037004f49de0003002000143d250064
:103eb000b5072400840f5000858f58001f003e0076
:103ec00034be2c0065012400840f5000858f5800fb
:103ed0000e003e000200e00005003200b2fd2000ae
:103ee00093fc23000800be00e7f3070059003700e9
:103ef000b2fd200093fc23000800be00d9f30700a8
:103f0000e50007000004be00550037000200e00095
:103f100005003200b2fd2000930424000800be001a
:103f2000d9f3070046003700b2fd200093042400b7
:103f30000800be00cbf3070041003700541d2300ea
:103f4000250e2400840f5000858f58001d003e0070
:103f5000f4dd2e00f50a2400840f5000858f5800f0
:103f60000c003e000200e0000500320042be2c00c2
:103f7000630924000800be00c3f30700e0ff370018
:103f800042be2c00630924000800be00b5f3070000
:103f9000300037000200e00005003200b2fd2000d2
:103fa000930c24000800be00b7f30700250037007b
:103fb000b2fd2000930c24000800be00a9f3070006
:103fc00020003700f2ff2f00f3f72700820f500088
:103fd000838f5800040036000801be000800be00b0
:103fe000a0f30700c7ff37006c8157000800be0030
:103ff000d70007006011b80063016000e10f5100b5
:10400000e08f590009003200e20f5100e08f5900a3
:1040100009003200e00f5100e08f59000b003a0018
:104020002fb89700bfb89700060037002fb8970049
:10403000bfb89700b2ff37002fb89700bfb89700fe
:1040400001f0a2001b010700aeff37002fb8970058
:10405000bfb89700900007000004be0009f0a2005e
:104060000800be004f04be000080fa0000000600f9
:10407000889fbe008a9fbe008c9fbe000004be00c9
:104080000400200005f82700858360000403780001
:10409000840f5300858f5b0007003a000801be00c3
:1040a0000800be003cf507000001be000800be008d
:1040b00075f3070010003700e00f5000e08f580044
:1040c0000f003c008101780003f0a100000178009e
:1040d000e00f5100e08f59006a003200100220000a
:1040e000800289000801be000800be005df30700e1
:1040f0000001be0049f407000004be006100370063
:10410000478cde00cf8cde00e00f5400e08f5c00b7
:104110000f003a006044b80004003700000040007f
:104120008180480061044400e0844c0004002000c9
:10413000050820008181620004017800e00f510031
:10414000e08f5900f5ff320061041400e0841c0088
:10415000f807b1000980b10081017800f307b200cf
:10416000000178000200be000170a0000808a30052
:104170000200320000004000818048008984d100a4
:104180000884d30000004000818048009401200092
:1041900002002000031020006055b8006066b800df
:1041a0000c0341008d834900800f5300818f5b0019
:1041b00006003c00060641008786490006005000c4
:1041c000878058000a0541008b85490000004000a7
:1041d000818048008301d1000281d3000402e900fc
:1041e000efff3a00e00f5000e08f58001b00320054
:1041f0000226240023da20000000200001f823001a
:1042000018f307000200200003f82300aaf20700b9
:104210000000e000110035000226240023da20000f
:104220000000200001f8230017f30700020020001f
:1042300003f82300a0f207000000e00003003400b0
:1042400062054500e0854d00040037006000b800bd
:10425000610065000005450081854d00c744dd0013
:10426000080020000000200001f0230008044000a6
:10427000898448008b85d1000a85d3000804450055
:1042800089844d000800be004f06be004f05be00e9
:104290004f04be0000000600889fbe008a9fbe003b
:1042a0008c9fbe000001be00bbf407000004be00ee
:1042b0000001be00b8f407000005be0002002000a7
:1042c00003f02b000800be00b3f40700020020003a
:1042d00003f82300ecf207000006be00f2a92a0052
:1042e000a3d223000a00be00abf407000001be0009
:1042f0000c00be00e4f207000006be000801be008c
:104300000a00be00a4f407000005be0072a1290047
:10431000c37c23000800be009ff40700f243200086
:1043200063ab2300cff207000001be000a00be000d
:1043300099f407000001be000c00be00d2f2070095
:104340004f06be004f05be004f04be000000060031
:104350000800fa00889fbe008a9fbe008c9fbe00a6
:104360000005be00020478000001be008300780052
:1043700001f0a1000a007800a2fd200093dc2400d7
:10438000820f5000838f58001d003e0032982f008e
:1043900023f223000a00be007ff407000200200081
:1043a00003b42400b8f207000200200003b4240084
:1043b000acf207000006be0041f20700800478005e
:1043c000a2fd200093fc23000c00be0072f4070045
:1043d0000001be000a00be00a2f207000005be00f8
:1043e000325a2800832823000c00be006af407001c
:1043f0000001be000a00be009af207002600370046
:10440000f2ff2f00f3f72700820f5000838f580030
:10441000060036000a01be000a00be0091f2070045
:10442000008cbe008004eb001c0037000a00be00b8
:10443000500007000005be0032982f0023f2230031
:1044400055f407000200200003f023008ef207005d
:104450003d0707000203be000002be00e4b79f0054
:10446000f5b79f0086bf9f0097bf9f0018f7070012
:1044700032982f0023f2230068f307000001be00ea
:104480000a00be0077f207006000b8002004980020
:1044900031049800efb49700008cbe00090078004a
:1044a0004f06be004f05be004f04be000080fa005c
:1044b00000000600889fbe008a9fbe008c9fbe0041
:1044c0000005be000001be0033f407000004be007a
:1044d0000a01be0030f407000006be004288280032
:1044e00083c023000800be002bf40700b2aa2a00f4
:1044f000a3e223005bf207000001be000c00be0037
:1045000025f407000001be000a00be005ef20700ad
:104510000005be000801be000800be001ef4070032
:104520000001be000c00be001bf407000006be0028
:10453000c2c32600636323000800be0016f4070010
:10454000f27c20000395230046f207000001be0024
:104550000c00be0010f407000001be000a00be00ff
:1045600049f207004f06be004f05be004f04be00d3
:10457000000006006022b8006033b8000002be00f0
:10458000f0ff2f00f1ff2f00f2ff2f00f3ff2700b5
:104590000000620081806200020163008381630089
:1045a000000006000000fa0068815700cfb89700ad
:1045b0008c0307000080fa0000000600b00107002d
:1045c000080207003c020700b8020700e0020700eb
:1045d000dc030700870337000000fa0068815700fa
:1045e000cfb897007f0307000080fa0000000600a4
:1045f000a3010700fb010700ac020700d40207007b
:104600002d020700cf0307007a03370080007800ef
:104610001000200002022000828f500004003200af
:10462000e9805000e48f5000010036000000eb00ec
:1046300000000600889fbe008a1f780000057800f1
:104640000a047800984478000805e8000900fb0097
:10465000eeff07000000e000f9ff3a00b0c2b3002f
:1046600080cf540005003200d0c2b3008000eb00c0
:1046700080cf540005003a00020037008000eb00b4
:1046800001003700110020000804e8000000eb00e2
:10469000030037006a02b900020052000003b000b4
:1046a0003801fb0003fd2f0082814100e98f51009a
:1046b000f8ff36000100e00001003a000000ea00c7
:1046c0004f0578004f04be000000060095028100ef
:1046d0000001eb000500e000310032000501780028
:1046e0008001eb00030278008300780002003700ad
:1046f000820178000601780012037800800f5300d1
:1047000009003a000300e0000300320012009000ac
:10471000900198000200370012009000900289007a
:104720000281e8001e003700800f530006003600ab
:104730000100e00002003200910f13000200360079
:104740000302780082007800120390000600e00067
:10475000e7ff3a000001eb000100e000100032002a
:104760001101900011031000e40f53000600360001
:104770008101780080197800008041000688e900f6
:104780001200980000017800818f520002003a0068
:104790009202890001003700120298000181e800ae
:1047a00002007800000006000000e000180032005f
:1047b0000081e900910281000100e0001200320056
:1047c0009201780003024000848f500006003a00f6
:1047d0001102900004087800918141000389e800eb
:1047e0009202890000000600110278008482e8002d
:1047f00085824000850f510003003a00848141000a
:104800008388e80000000600010878009202890011
:10481000000006000200fa00889fbe000000e000d1
:1048200001003a00100020000004e8000800a10088
:10483000700281000000e8000000a1007002890001
:10484000403d22000000e0000f003200e10f540064
:1048500006003600e20f440005003a00c0002000c8
:10486000800289000000eb002a00370028002000a9
:104870000800780095ff0700290020000000e000f4
:1048800024003a00010037008004eb007002810030
:104890006102810000805000800f54001300360038
:1048a00008804400d0bf9f00668057004f05070076
:1048b000800078000000eb000100e00015003200ed
:1048c0000100e8000000a10061028100810f50009a
:1048d0000100320070028900dfb89700010040003b
:1048e0000000e8000000a100600289007102810060
:1048f0000900e00003003200010078000818780089
:1049000001003700010078000884440088804000de
:10491000710289004f04be000080fa00000006000a
:10492000889fbe008a9fbe00800478000200e000dd
:104930005b00320001407800814c780082814400a5
:10494000f1f99f00e20f51005500360091449800a4
:10495000a1449800e1f99f00d1f99f00e60f5100b2
:104960004f003600b1449800c1f99f00e80f510094
:104970004b0036000905ea00630565000a8444001f
:104980000a055100c1ff2f00010565000080fb00f2
:104990008000eb0012102000131020001306070007
:1049a000008cbe000a01440060b99f0071b99f00ed
:1049b000e80f55003a0036002004980031049800b2
:1049c000400498005104980020b99f0031b99f001d
:1049d00040b99f0051b99f00f80f550030003600d4
:1049e0006004980071049800000c9800110c980065
:1049f000200c9800310c9800400c9800510c980045
:104a000020b19f0031b19f0040b19f0051b19f0084
:104a100060b19f0071b19f0000b99f0011b99f0064
:104a2000640164007801410002044400020555005d
:104a30006011b8000203be000002be000403be0005
:104a40006022b800000072008180720002017300d1
:104a50008381730010003700009cbe000294be00ea
:104a60004004980051049800620498007304980070
:104a7000000c9800110c9800220c9800330c980040
:104a8000400c9800510c9800620c9800730c980030
:104a90000a02b1000802b000ff0f5500eeff3e0011
:104aa000090078004f05be004f04be00000006005c
:104ab000881f78000104780088007800050007004e
:104ac000904f1400010032000000eb004f0478000a
:104ad00000000600881f7800000478008180fb0039
:104ae0000a003a000800780038000700000044007f
:104af000220037001804e000200032000804e8001b
:104b00001081fb00810f51001c003200080078006a
:104b10000808a300f7ff3a0014102000048ab90027
:104b20000801780038007800f5ef2f0080824200fd
:104b30008081ea0083826200030828008382620089
:104b400007003a0000006a00f5ef2f008082420063
:104b50000080ea000080620083016000f0ff320004
:104b6000020078001204e000040032000201e800b4
:104b70009081fb00818f5100f9ff3a004f047800cb
:104b800000000600810178000002780030417800c2
:104b9000b14f510002003a000204e000f9ff3a0070
:104ba0009480fb001380fb00008050000000060092
:104bb000881f780000047800080078009c04070033
:104bc000080078004f04780000000600800078009c
:104bd000040037003104e00002003a0000005100f8
:104be00000000600010178000108a300f9ff3a0067
:104bf0008101780031017800f4ef2f0002024200b9
:104c00000281ea0002016200040828000401610038
:104c1000f7ff320083007800010178003104e000e2
:104c2000fdff3a000000510000000600881f7800d8
:104c300000047800080078009d0407000800780050
:104c40004f04780000000600f1fb2f008080400038
:104c5000f98f500001003e000050a0000000060047
:104c6000f9ff3700f1f92f0080804000f98f5000e4
:104c700001003e00f005b20000000600f9ff370019
:104c8000ec874700889fbe008a9fbe008c9fbe00b5
:104c90008e1f780000067800010478001807900045
:104ca0002805900098067800cdb79f00b8059000c1
:104cb0003202be002203be000400be000601be0098
:104cc0004f18de006011b8008000eb00d0b79f00e5
:104cd000e1b79f00f2b79f0083bf9f008004780078
:104ce0000900e000060032006000b8006011b80062
:104cf000040250008582580006035900878359003a
:104d00000e00e000020035000d10a100cdb79f009d
:104d10000900e00005003a004fb097000028a3000a
:104d200002003a000038a300020032008a00e900c5
:104d3000010037008a007800f8815700a2002000a7
:104d400008007800860007000900e00003003a0030
:104d5000cfb097000128a300080032000000e9004e
:104d600000814500b1c2b3000900e000010032003b
:104d7000d1c2b30001497800050037000138a30013
:104d8000030032000000e90001c2b3008175780021
:104d9000480190000201e9000001510080804500b7
:104da0004fb297008a0178000c00780030020700ab
:104db0009c0090000188a30004003200980090003d
:104dc000810f500001003d00010078004f0778007e
:104dd0004f06be004f05be004f04be00cf00b1001d
:104de000000006000200fa00889fbe008a9fbe00f5
:104df0008005780001047800020078001801900016
:104e00002805900098007800b1bf9f00b80490007a
:104e10000200e000020035000110a100b1bf9f00b8
:104e2000ea815700820020008a0078003002be002c
:104e30002003be0008007800490007003fb9970032
:104e4000f0006100030032000000e90001c3b3007c
:104e5000817478003fb99700e800610003003200d8
:104e60000000e90001c2b30081747800480190009d
:104e70000201e90000015100808044003fba970020
:104e80008a0178000b007800f90107009b00900070
:104e90000188a3000400320098009000810f5000a8
:104ea00001003d00010078004f05be004f04be0028
:104eb0000080fa0000000600ea874700889fbe00d5
:104ec0008a9fbe008e1f78000004780003007800df
:104ed0007287570084e2260055c72600049fbe0053
:104ee000c3962200030f78006c875700004feb0039
:104ef00011059000a1049000910578000200e000e7
:104f00000200320002077800010037007287570064
:104f10000000e00002003a000e0078002bff0700be
:104f20000a00e000030035008a0f5000010036003f
:104f30000a0078000b0278008901780000017800ef
:104f40008e00780008007800c90107004f0778003c
:104f50004f05be004f04be00af00b10000000600c8
:104f6000f4874700889fbe008a9fbe008c9fbe00ca
:104f70008e1f78000605be000404be0081bf9f009e
:104f800082b79f00f3b79f00b0009000e1b79f0089
:104f90001301780092b79f009006900040009000a7
:104fa0000000e900000678000d00e00001003d006f
:104fb0001d0020008040eb00efb197008171780068
:104fc0001e0020001f0037000c06e9000fb09700fc
:104fd000cf80de006109b900a0b79f00b1b79f0084
:104fe000c2b79f00d3b79f000203be000002be00fd
:104ff0000800be000a01be008ff30700000778001a
:105000000e4078000043b000efb0970080707e0043
:105010008d06e9000fb997000201e90082bf9f00e9
:105020002fb29700bfb297004fb39700dfb397003e
:105030000800be000a01be0078f307000205be00aa
:105040000004be000c00e0000d003400e00f54002e
:10505000e08f5c00e00f5d00e08f5d00daff3a005a
:105060000d00e000d8ff3c008fb997000300e0007e
:10507000030034001fb097000018a300d2ff3a00cd
:105080000e00e00002003a00ffb097001140a100be
:105090000c0078004f0778004f06be004f05be0099
:1050a0004f04be004f01b100000006000200fa00ec
:1050b000889fbe008a9fbe0000057800010478002a
:1050c0000200780018019000a80490009800780071
:1050d000b1bf9f00b80590000200e000020035005b
:1050e0000110a100b1bf9f00ea815700a20020007b
:1050f000890078003002be002003be00080078005e
:1051000097ff0700480190000201e90000015100eb
:10511000808045003fba9700890178000a00780036
:10512000530107009a0090000188a3000400320098
:1051300098009000810f500001003d0001007800b0
:105140004f05be004f04be000080fa0000000600bc
:10515000fa874700889fbe008a9fbe008c9fbe00d2
:105160008e1f7800800478000104780082057800a2
:10517000180190002805900018077800b8009000ea
:105180000200e000020035000e10a100010037000f
:105190001200200070006700e0b79f000900320095
:1051a0003b02be002b03be00e00f5200e08f5a000e
:1051b000e00f5b00e08f5b00020032008a86e900ae
:1051c000010037008a067800e8026700f5b79f0003
:1051d000010032008d06e9003b02be002b03be0039
:1051e000e4af9f00f5af9f0086b79f0097b79f0081
